:020000040800F2
:1000000030280020C90100089B1F00085D1D000862
:10001000991F000833030008933B0008000000000C
:100020000000000000000000000000004B2300085A
:100030006B03000800000000492300084D2300085E
:10004000E3010008E3010008E3010008E301000800
:10005000E3010008E3010008E3010008E3010008F0
:10006000E3010008E3010008E3010008E3010008E0
:10007000E3010008E3010008E3010008E3010008D0
:1000800035030008E3010008E3010008E30100086C
:100090001D3B0008E3010008E3010008E30100083C
:1000A000E3010008E3010008E3010008E3010008A0
:1000B000E3010008E3010008E3010008E301000890
:1000C000E3010008E3010008E3010008E301000880
:1000D000E3010008E3010008E3010008E301000870
:1000E000E3010008E3010008E301000800F002F862
:1000F00000F05AF80AA090E8000C82448344AAF168
:100100000107DA4501D100F04FF8AFF2090EBAE865
:100110000F0013F0010F18BFFB1A43F0010318473B
:10012000584A0000784A00000A444FF0000C10F8CA
:10013000013B13F0070408BF10F8014B1D1108BF65
:1001400010F8015B641E05D010F8016B641E01F805
:10015000016BF9D113F0080F1EBF10F8014BAD1C55
:100160000C1B09D16D1E58BF01F801CBFAD505E073
:1001700014F8016B01F8016B6D1EF9D59142D6D3CD
:10018000704700000023002400250026103A28BFF5
:1001900078C1FBD8520728BF30C148BF0B607047F9
:1001A0001FB51FBD10B510BD00F08AF81146FFF74E
:1001B000F7FF03F035FF00F0A8F803B4FFF7F2FFF4
:1001C00003BC00F0AFF80000094880470948004729
:1001D000FEE7FEE7FEE7FEE7FEE7FEE7FEE7FEE7F7
:1001E000FEE7FEE704480549054A064B7047000054
:1001F000C7230008ED00000830220020302800202E
:10020000302400203024002010B5203AC0F00B80AC
:10021000B1E81850203AA0E81850B1E81850A0E80A
:100220001850BFF4F5AF5FEA027C24BFB1E8185064
:10023000A0E8185044BF18C918C0BDE810405FEAD4
:10024000827C24BF51F8043B40F8043B08BF704750
:10025000D20728BF31F8023B48BF11F8012B28BF55
:1002600020F8023B48BF00F8012B70474FF0000216
:1002700000B5134694469646203922BFA0E80C509C
:10028000A0E80C50B1F12001BFF4F7AF090728BF77
:10029000A0E80C5048BF0CC05DF804EB890028BFF3
:1002A00040F8042B08BF704748BF20F8022B11F01C
:1002B000804F18BF00F8012B704770477047704798
:1002C000754600F02BF8AE4605006946534620F00F
:1002D0000700854618B020B5FFF784FFBDE8204031
:1002E0004FF000064FF000074FF000084FF0000BF2
:1002F00021F00701AC46ACE8C009ACE8C009ACE8A5
:10030000C009ACE8C0098D46704710B50446AFF38C
:1003100000802046BDE81040FFF74FBF00487047FF
:10032000CC21002001491820ABBEFEE726000200C8
:100330007047FEE7014800F067B80000C0190020D0
:1003400030B590F840500124AC40C56B6C60046837
:1003500063604368102B036803D099600068C26033
:1003600030BD9A600068C16030BD704772B6FEE76C
:1003700010B590F821100024022903D004218163D4
:1003800001243DE001680A6822F00E020A6001685B
:100390000A6822F001020A601A4A0168914201D1FA
:1003A000012121E0174A1432914201D110211BE0B2
:1003B000144A2832914201D1891515E0114A3C3284
:1003C000914201D189140FE00E4A5032914202D17C
:1003D0004FF4803108E00B4A6432914202D14FF46D
:1003E000801101E04FF08071064A083A5160012106
:1003F00080F82110002180F82010416B01B188475E
:10040000204610BD080002402DE9F05FC16B0C686A
:1004100001680B68D0F840C0042202FA0CF2494D82
:10042000DFF824A1494E4A4FDFF828B1DFF828E170
:1004300022422CD05A072AD50A68920603D40A68A9
:1004400022F004020A600168A94201D1042219E0E5
:10045000514501D1402215E0B14202D14FF48062F2
:1004600010E0B94202D14FF480420BE0594502D16D
:100470004FF4802206E0714502D14FF4800201E082
:100480004FF080622F4908394A60C16A3BE04FF063
:10049000020808FA0CF818EA040F4FF000094FF0B0
:1004A000010235D05FEA837832D50B689B0605D40C
:1004B0000B6823F00A030B6080F821200168A94231
:1004C00001D1022219E0514501D1202215E0B142AB
:1004D00002D14FF4007210E0B94202D14FF4005241
:1004E0000BE0594502D14FF4003206E0714502D1CC
:1004F0004FF4001201E04FF00072124908394A60CF
:1005000080F82090816A00291AD0BDE8F05F084782
:10051000082505FA0CF5254212D01B0710D50B68EB
:1005200023F00E030B6090F84010C36B02FA01F148
:100530005960826380F8212080F82090016BE2E707
:10054000BDE8F09F080002401C000240300002405D
:1005500044000240580002406C00024030B528B30D
:1005600008C8134914221944B1FBF2F18900C16390
:1005700010498163022141771A6843F6F0718A437A
:10058000D0E900142143D0E902452C4321430469FA
:1005900021434469214384692143114319600021A7
:1005A0004163012242770177084630BD012030BD0A
:1005B000F8FFFDBF0000024070B5044690F820002F
:1005C000002501280CD0012084F8200094F8216037
:1005D0000020012E06D084F820000225284670BD98
:1005E000022070BD022684F82160A063206806689E
:1005F00026F0010606602046FFF7A2FEE06A00280A
:100600002068016802D041F00E0106E021F00401EB
:1006100001602068016841F00A01016020680168FA
:1006200041F001010160D9E770B5044600F01AF904
:100630000546601C02D004480078044400F012F91A
:10064000401BA042FAD370BD9C010020034A1368EE
:10065000084323F07F030343136070470000014009
:100660000248016841F080010160704700000140CC
:100670002DE9F84FDFF8B8910024A9F1040B2346C7
:100680000F2709F1040AABF1040EC9E00125A540CA
:100690002A40AA427DD1674ED1F804C0ACEB0608CF
:1006A000B44532D014DCBCF1030F3AD009DCBCF104
:1006B000000F2AD0BCF1010F1CD0BCF1020F31D1C8
:1006C0001DE0BCF1110F17D0BCF1120F2AD119E0B7
:1006D000B8F5881F19D006DCB8F5803F15D0B8F5FD
:1006E000801F1FD111E0B8F5001F0ED0B8F5041F10
:1006F00018D10AE0CB6815E0CB681B1D12E0CB686F
:1007000008330FE0CB680C330CE08B682BB1012B66
:100710004FF0080303D0456104E0042302E00561C3
:1007200000E00023FF2A01D8064601E000F104069C
:100730004FEA840501D9A5F12005D6F8008007FA13
:1007400005FC28EA0C0803FA05F548EA0508C6F88E
:1007500000804D68ED0062D5374DAE6946F0010668
:10076000AE61AD6924F0030605F001050095334D37
:1007700006EB050CDCF80850A607360F07FA06F85A
:1007800025EA0805DFF8B880404503D14FF000089E
:1007900017E044E0DFF8AC80404502D14FF001089B
:1007A0000FE0DFF8A480404502D14FF0020808E0D6
:1007B000DFF89880404502D14FF0030801E04FF088
:1007C000040808FA06F848EA0508CCF808804D68DD
:1007D000D9F80060ED024D4601D5164300E096437E
:1007E0002E604D68DAF80060AD02554601D516431B
:1007F00000E096432E604D68DBF80060AD035D4677
:1008000001D5164300E096432E604D68DEF8006087
:10081000ED03754601D5164300E096432E60641C37
:100820000D682A46E5407FF431AFBDE8F88F00003F
:1008300008040140000011100010024000000140B7
:1008400000080140000C014000100140001401406C
:100850008068084000D0012070470AB101617047EC
:100860000904FBE701488068704700009C010020F4
:100870000248816802781144816070479C01002021
:10088000074810B5016841F010010160032000F035
:1008900075F80F2000F006F800F024F8002010BDD5
:1008A0000020024070B50D4D04464FF47A7128784F
:1008B000B1FBF0F00A490968B1FBF0F000F0E4FF89
:1008C00048B9102C07D200222146501E00F036F8FD
:1008D00000206C6070BD012070BD00009C010020F4
:1008E000A80100200C4808B5816941F0010181612F
:1008F000816901F001010091C16941F08051C1613C
:10090000C06900F0805000900448416821F0E06127
:1009100041F00071416008BD00100240000001403C
:10092000002809DB00F01F020121914040098000EE
:1009300000F1E020C0F8001170470000F0B40E4B49
:100940001B680C46C3F30223C3F10705042D00D92D
:100950000425191D072901D2002300E0DB1E012612
:1009600006FA05F1491E214099409E40761E164028
:100970003143F0BC03F00EB90CED00E0064900F085
:10098000070208684FF6FF03184040EA0220034AB6
:1009900010430860704700000CED00E00000FA050D
:1009A00010B50C0607D501F0070101EB810100EB42
:1009B000C100283005E001EB810100EBC10000F52A
:1009C000B47099B232B1012202730181190C4181D4
:1009D000002010BD00220273C180F9E7704701EBCF
:1009E000810200EBC202D0F8EC02D26B02F075B8C3
:1009F00001EB810200EBC202D0F8EC02D2F87C21BC
:100A000002F0CEB870B504460B0601F0070000EB0B
:100A1000800104EBC1014FF001024FF0000503D546
:100A200081F82920283103E081F8695101F5B4717A
:100A3000087094F8A802012808D084F8A822206839
:100A400002F000FD84F8A852002070BD022070BDA5
:100A500070B5044601F00F006268904201D9012090
:100A600070BD0B0601F0070000EB800104EBC10133
:100A70004FF001024FF0000503D581F829202831FD
:100A800003E081F8695101F5B4718D70087094F834
:100A9000A802012808D084F8A822206802F06FFD7F
:100AA00084F8A852002070BD022070BD2DE9F05FCF
:100AB00004685FEA424C0B788D69B4F850C04FF07F
:100AC00000064BF68F7948F2800A48F68F7B48F291
:100AD000C00E4FF480672AD54FF0020808EBC30818
:100AE000C44407EB4C07E45BC4F30904A54203D3F9
:100AF0002D1B8D6101D00BE08E61066836F8235006
:100B000005EA090585F4005545EA0A0526F823504B
:100B1000520609D50D78036833F8252002EA0B0246
:100B200042EA0E0223F8252084B30A8929E04FF017
:100B3000060808EBC308C44407EB4C07E45BC4F3A6
:100B40000904A54203D32D1B8D6101D00BE08E61FA
:100B5000066836F8235005EA090585F4005545EA8C
:100B60000A0526F82350520609D40B78056835F893
:100B7000232002EA0B0242EA0E0225F823202CB1C0
:100B80004A8949690068234602F0D2FF2046BDE841
:100B9000F09F2DE9F05F054600680C465FEA426C65
:100BA00016468B692278B0F850C048F68F774CF221
:100BB00080094FF4004B4FF6FF7E4FF4806A4FF0F0
:100BC000000172D54FF0020808EBC208E0440AEBBE
:100BD000480C30F80C00C0F30900834211D91B1AED
:100BE000A3610FD0730407D52E6836F822303B403E
:100BF00043EA090326F8223094F82420012A47D03A
:100C000052E1A161607810B1012813D01AE0286880
:100C1000B0F85030184400EB0210B0F80424C2F3CE
:100C20000902A0F80424B0F8042442F40042A0F819
:100C3000042407E02868B0F85030184400EB021094
:100C4000A0F804146278286812B1012A11D018E0C3
:100C5000B0F850100844217800EB0110B0F80C14E3
:100C6000C1F30901A0F80C14B0F80C1441F40041D0
:100C700005E0B0F850201044227800EB0210A0F8F4
:100C80000C1421782846FFF7AAFE700472D40BE1F9
:100C9000626902446261E2690244E2612369226A94
:100CA0009A4203D31846111A04E03EE084F8241057
:100CB0000AB110462162617811B1012929D031E0D1
:100CC0002968B1F850201144227801EB0211B1F8E3
:100CD0000424C2F30902A1F8042401F204413E28CD
:100CE00007D94209C30600D1521E0B884BEA822263
:100CF00007E048B14208C30700D0521C0B880EEA37
:100D0000822213430B800DE00A8842F400420A80DD
:100D100008E02968B1F850201144227801EB021153
:100D2000A1F8040483B22289BAE04FF0060808EB68
:100D3000C208E0440AEB480C30F80C00C0F309008C
:100D4000834211D31B1AA3610FD0730407D42E68FA
:100D500036F822303B4043EA090326F8223094F863
:100D60002420012A51D09FE0A161607818B10128A8
:100D700014D01BE03FE02868B0F85030184400EB76
:100D80000210B0F80424C2F30902A0F80424B0F859
:100D9000042442F40042A0F8042407E02868B0F8D4
:100DA0005030184400EB0210A0F804146278286850
:100DB00012B1012A11D018E0B0F85010084421787F
:100DC00000EB0110B0F80C14C1F30901A0F80C14E9
:100DD000B0F80C1441F4004105E0B0F85020104484
:100DE000227800EB0210A0F80C1421782846FFF7B7
:100DF000F6FD700458D42278296831F82200384072
:100E000040EA090021F822004EE062690244626172
:100E1000E2690244E2612369226A9A4203D31846D6
:100E2000111A216204E00AB11046216284F82410EC
:100E30006278296812B1012A28D02FE0B1F8502039
:100E40001144227801EB0211B1F80C24C2F309021B
:100E5000A1F80C2401F20C413E2807D94209C3062F
:100E600000D1521E0B884BEA822207E048B14208AB
:100E7000C30700D0521C0B880EEA822213430B805A
:100E80000CE00A8842F400420A8007E0B1F85020E2
:100E90001144227801EB0211A1F80C04628983B29B
:100EA0006169286802F062FE2278296831F8220020
:100EB00048F6BF73184080F0300048F280031843B2
:100EC00021F822000020BDE8F09F2DE9F041044602
:100ED0000F0601F0070000EB800104EBC1014FF0A9
:100EE00001064FF0000503D581F82960283103E0A1
:100EF00081F8695101F5B471022B08700A61CB7059
:100F000000D10D7194F8A802012809D084F8A862D4
:100F1000206802F047F9284684F8A852BDE8F0811D
:100F20000220FBE710B501F0070404EB840100EB9D
:100F3000C101C1E95F230022C1F8842181F8692140
:100F400081F86841006801F5B47102F06DFB002082
:100F500010BD70B504460D4601F007006168884277
:100F600001D9012070BD29064FF000064FF00102A3
:100F700007D500EB800104EBC10181F8292028315D
:100F800007E005EB850104EBC10181F8696101F51A
:100F9000B4718A70087094F8A802012807D084F808
:100FA000A822206802F027FB680702D006E0022092
:100FB00070BD04F52C71206802F0DFFA84F8A86295
:100FC000002070BD10B501F0070404EB840100EBB4
:100FD000C101C1E90F23012281F84C208B64002359
:100FE0004B6481F8292001F8284F006802F01CFBAF
:100FF000002010BD1FB50446006802F095FD0104F5
:1010000003D5204600F0CAFF1FBD41050DD520685D
:1010100030F8441F21F480610180204600F010F96F
:101020000021204600F027F91FBD410405D52068A6
:1010300030F8441F21F4804174E0810405D5206814
:1010400030F8441F21F400516CE0C10414D520682D
:1010500030F8401F21F004010180206830F8401F63
:1010600021F008010180204600F0FDF8206830F8EA
:10107000441F21F4805155E0010540D5D4F80020EB
:101080000020694632F8203021F81030401CC0B2F0
:101090000828F7D332F8400F40F001001080206894
:1010A00030F8402F22F0010202802068B0F844207E
:1010B0005205FBD530F8442F22F4806202800020D4
:1010C000236831F8102023F82020401CC0B20828E3
:1010D000F6D3206830F8401F41F0080101802068F5
:1010E00030F8441F21F400610180206830F8401F6F
:1010F00041F004010180204600F0F2F81FBD810597
:1011000009D5206830F8441F21F400710180204681
:1011100000F0ADF81FBDC005FCD5206830F8441FB5
:1011200021F4807101801FBD2DE9F04186B00400DB
:1011300004D094F8A902002520B108E0012006B0EF
:10114000BDE8F08184F8A852204600F05BF8032047
:1011500084F8A902206802F009FA04F110011422AF
:1011600088466846FFF750F894E80F0002F068F9E7
:101170000227D0BB0021206802F0F0FC00200126ED
:101180000EE000BF00EB800104EBC10181F8296093
:1011900001F8280F401CCD700D614D61C0B28D610A
:1011A00061688142EED8002012E000BF00EB8001B0
:1011B00004EBC10181F8695181F8680181F86B5134
:1011C000C1F87851C1F87C51401CC0B2C1F88051BF
:1011D00061688142EAD8142241466846FFF714F854
:1011E00094E80F0002F0B9F910B184F8A972A5E7EC
:1011F00084F8245084F8A962206802F0ACF9002039
:101200009DE7000008B500680B49884212D10B48E1
:10121000C16941F40001C161C069002200F400000D
:10122000009011461420FFF789FBBDE80840142008
:10123000FFF776BB08BD0000005C004000100240D4
:1012400070B5044680680125022801D0FFF78EF8AA
:101250002946D4F8EC0201F07CFDD4F8EC02BDE89C
:10126000704001F038BDD0F8EC0201F05CBDD0F860
:10127000EC0201F062BD10B5044690F8A802012806
:101280000BD0012084F8A80284F82410206802F012
:1012900067FC002084F8A80210BD022010BDD0F821
:1012A000EC2200F52C71104601F05FBD10B504462C
:1012B00090F8A802012810D0012084F8A802206824
:1012C00002F023FC01212046FFF788FB206802F092
:1012D00040F9002084F8A80210BD022010BD0000D3
:1012E00010B50446D0F8EC0201F07EFDA06900289C
:1012F00004D00348016841F00601016010BD000000
:1013000010ED00E02DE9F84305460078354CC007A4
:1013100054D0E0690026C00008D4E06940F0805055
:10132000E061E069012600F0805000902E480168DD
:10133000C90512D40168804641F480710160FFF74D
:1013400091FA074605E000BFFFF78CFAC01B64283E
:1013500023D8D8F80000C005F6D5206A10F44070F4
:1013600021D0A98801F4407181421CD0206A1F4914
:10137000012220F440700A6000220A602062C00747
:1013800011D0FFF76FFA074641F2883808E000BF36
:10139000FFF768FAC11B414502D90320BDE8F88375
:1013A000206A8007F4D5206A696820F440700843F9
:1013B00020621EB1E06920F08050E061287880074B
:1013C00005D56068A96820F440400843606028782B
:1013D000C00605D56068E96820F4800008436060B5
:1013E0000020DBE700100240007000404004424251
:1013F0002DE9F0470F46050061D0434E306800F0FC
:101400000700B84209D2306820F007003843306046
:10141000306800F00700B84251D128683B4C810782
:1014200012D5400703D5606840F4E060606028781A
:10143000000703D5606840F4605060606068A96888
:1014400020F0F000084360602878C00728D0686862
:10145000012810D02168022810D0890700292EDA2F
:10146000616821F0030101436160FFF7FBF98046E9
:1014700041F288390DE021688903EFE78901EDE742
:10148000FFF7F0F9A0EB0801494502D90320BDE8B8
:10149000F0876068696800F00C00B0EB810FEFD155
:1014A000306800F00700B8420BD9306820F0070020
:1014B00038433060306800F00700B84201D00120A6
:1014C000E5E72878400705D56068E96820F4E06022
:1014D000084360602878000706D56068296920F411
:1014E000605040EAC100606000F018F86168084A86
:1014F000C1F30311515CC840064908600648006802
:10150000FFF7D0F90020C2E700200240001002409F
:10151000664B0008A8010020A00100200E4A516877
:101520000E4801F00C03042B11D0082B0FD10C48EE
:10153000C1F38343C903C05C0AD55168084AC1F3AB
:101540004041921E515C054A5043B0FBF1F0704798
:1015500004494843704700000010024000127A001E
:10156000564B000800093D002DE9F84F040070D0EB
:101570002078C04DC00749D06868C0F381000128B9
:1015800007D06868C0F38100022809D16868C003E9
:1015900006D52868800339D560680028E7D035E093
:1015A0006068B0F5803F0BD010B1B0F5A02F11D01E
:1015B000286820F480302860286820F4802002E029
:1015C000286840F480302860606890B1FFF74AF9DD
:1015D00006460AE0286840F480202860F0E700BF53
:1015E000FFF740F9801B642873D828688003F7D57B
:1015F0000CE0FFF737F9064605E000BFFFF732F9C8
:10160000801B6428F0D828688003F7D420789A4E8D
:1016100080074FF001094FF0000839D5686810F0D5
:101620000C0F07D06868C0F38100022809D16868F0
:10163000C00306D42868800714D52069012808D182
:1016400010E02069B0B1C6F80090FFF70BF907462B
:1016500005E00AE1FFF706F9C01B0228C4D8286894
:101660008007F7D52868616920F0F80040EAC100DA
:1016700028600DE0C6F80080FFF7F4F8074604E0A4
:10168000FFF7F0F8C01B022823D828688007F7D49A
:10169000207800072CD57948A169D9B1C0F800900D
:1016A000FFF7E0F8074604E0FFF7DCF8C01B02286C
:1016B0000FD8686A8007F7D571484FF4FA5100686F
:1016C000B0FBF1F0009000BF0098411E0091FAD2EB
:1016D0000EE080E0C0F80080FFF7C4F8074604E0A1
:1016E000FFF7C0F8C01B022875D8686A8007F7D4D6
:1016F0002078400760D5E8690027C00008D4E86971
:1017000040F08050E861E869012700F080500090C7
:101710005C480168C90513D40168834641F48071AF
:101720000160FFF79FF8824606E000BFFFF79AF8D6
:10173000A0EB0A0064284ED8DBF80000C005F5D500
:10174000E06801280AD008B1052813D0286A20F0E3
:1017500001002862286A20F0040002E0286A40F0B4
:1017600001002862E06841F2883B98B1FFF77AF8FF
:1017700082460BE0286A40F004002862EEE700BFD2
:10178000FFF770F8A0EB0A0159455AD8286A80077C
:10179000F6D50CE0FFF766F8824605E0FFF762F841
:1017A000A0EB0A0159454CD8286A8007F6D41FB12E
:1017B000E86920F08050E861E06988B36968C1F3A6
:1017C0008101022944D00228C6F8608004D0FFF7C6
:1017D00049F8044638E034E0FFF744F8074604E0EF
:1017E000FFF740F8C01B02282BD828688001F7D4E7
:1017F000206AB0F5803F05D16868A16820F4003008
:1018000008436860D4E908010843696821F4741149
:1018100008436860C6F86090FFF724F8044606E0C5
:1018200025E000BFFFF71EF8001B022809D8286832
:101830008001F7D51BE000BFFFF714F8001B02285A
:1018400002D90320BDE8F88F28688001F4D40EE0A7
:101850000128F7D06868226A00F48031914204D1EF
:10186000616A00F47010884201D00120EAE700208C
:10187000E8E70000001002400000424280044242BB
:10188000A80100200070004010B5401EB0F1807F1C
:1018900001D3012010BD4FF0E02460610F216017DB
:1018A00002F078F90020A06107202061002010BD1F
:1018B00070B590F83C20012A26D0012480F83C40E5
:1018C000022280F83D2003685A689D6822F0700665
:1018D0000A6832435A600D4B02689A4208D0B2F14E
:1018E000804F05D00A4B9A4202D00A4B9A4204D14B
:1018F000496825F080031943916080F83D4000213C
:1019000080F83C10084670BD022070BD002C0140DC
:1019100000040040000800407047000000B585B09A
:101920000021009101910291039100680B498842C6
:1019300011D10B48816941F00401816180696946D8
:1019400000F00400049040200090022001900390D9
:101950000448FEF78DFE05B000BD00000004004005
:10196000001002400008014070B5044690F83C00A9
:1019700000260D4601280FD0012084F83C006AB1F2
:10198000042A1DD0082A2FD00C2A3FD0012600207F
:1019900084F83C00304670BD022070BD206800F025
:1019A000CBFD2068816941F008018161206881696F
:1019B00021F004018161206881692A69114311E0E5
:1019C000206800F0E1FD2068816941F400618161D7
:1019D0002068816921F480618161206881692A69B8
:1019E00041EA02218161D2E7206800F0F9FD206818
:1019F000C16941F00801C1612068C16921F0040199
:101A0000C1612068C1692A69114311E0206800F0B2
:101A100013FE2068C16941F40061C1612068C16999
:101A200021F48061C1612068C1692A6941EA02210B
:101A3000C161ACE710B5040003D094F83D0010B1CB
:101A400007E0012010BD002084F83C00204600F093
:101A50001FF8022084F83D00211D206800F0B4FC2E
:101A6000012084F8460084F83E0084F83F0084F8A2
:101A7000400084F8410084F8420084F8430084F870
:101A8000440084F8450084F83D00002010BD0000AB
:101A900038B5054600681349884221D11248C1690A
:101AA00041F00201C161C069114C00F002000090D8
:101AB0000E4820601020606000208021C4E90201EF
:101AC00049002161890061612021C4E90610204696
:101AD000FEF744FD08B1FEF749FC6C62AC63656239
:101AE00038BD000000040040001002406C000240BD
:101AF000C01900200021014800F0CEB8781900205C
:101B0000704700002DE9F04117460D0004464FF0E4
:101B100000060CD0042D11D0082D16D094F84100E9
:101B2000022819D094F84100012818D07CE094F8DC
:101B30003E00022810D094F83E00F5E794F83F00EC
:101B4000022809D094F83F00EEE794F840000228FC
:101B500002D094F84000E7E70220BDE8F081002FB2
:101B600062D0002B60D04649464ADFF81CC10220F3
:101B70004DB1042D18D0082D27D084F841000C2D2C
:101B800044D0012679E084F83E00606A8162606A90
:101B90003946C262606AC0F830C02268606A343276
:101BA000FEF70AFD88BB21E084F83F00A06A81624D
:101BB000A06A3946C262A06AC0F830C02268A06A32
:101BC0003832FEF7F9FC00BB15E084F84000E06A0B
:101BD0008162E06A3946C262E06AC0F830C02268B9
:101BE000E06A3C32FEF7E8FC78B909E02068C16899
:101BF00041F400711EE02068C16841F4806119E081
:101C00002068C16841F4006114E00DE0206B81623E
:101C1000206B3946C262206BC0F830C02268206B4E
:101C20004032FEF7C9FC08B1012096E72068C16880
:101C300041F48051C16001222946206800F0FAFB7E
:101C400012492068884203D1426C42F40042426447
:101C50002068884208D0B0F1804F05D00C498842F6
:101C600002D00C49884204D1816801F0070106299D
:101C700003D0016841F00101016030466DE70000CA
:101C80004F240008AD240008E5240008002C014082
:101C9000000400400008004070B50D0004464FF0FD
:101CA000000607D0042D0CD0082D11D00C2D16D015
:101CB000012645E02068C16821F40071C160606AB6
:101CC00013E02068C16821F48061C160A06A0CE063
:101CD0002068C16821F40061C160E06A05E0206805
:101CE000C16821F48051C160206BFEF741FB0022E6
:101CF0002946206800F09EFB174B41F21111206825
:101D00008A10984209D1036A0B4206D1036A134232
:101D100003D1436C23F4004343642068036A0B42FD
:101D200006D1016A114203D1016821F0010101606D
:101D300001203DB1042D08D0082D09D084F84100C0
:101D4000304670BD84F83E00FAE784F83F00F7E7BC
:101D500084F84000F4E70000002C0140FEE700009A
:101D6000F0B500230A24302537261F4611E000BFB6
:101D7000B4EB107F02D905EB107C01E006EB107C80
:101D800001F813C001EB430C00015B1C8CF80170DF
:101D9000DBB29342ECD3F0BD094808B5416941F08C
:101DA000010141614069002200F0010000901146EC
:101DB0001020FEF7C3FDBDE808401020FEF7B0BDBF
:101DC000001002402DE9F04F85B0002441480094F6
:101DD000019402940394816941F010018161816949
:101DE00001F010010491816941F020018161816954
:101DF00001F020010491816941F004018161816950
:101E000001F004010491816941F008018161806958
:101E1000DFF8C49000F008004FF460450490002201
:101E200029464846FEF719FDDFF8B0B04FF4C56704
:101E3000002239465846FEF710FDDFF8A4A044F210
:101E40007028002241465046FEF707FD0126CDE9E5
:101E50000056022569464846CDE90245FEF708FCD2
:101E6000CDE90065694658460395FEF701FC12204E
:101E7000CDE90004694658460294FEF7F9FBCDE926
:101E8000007669465846CDE90245FEF7F1FB4FF46E
:101E90003040CDE90004694650460294FEF7E8FB65
:101EA000CDE9008669465046CDE90245FEF7E0FBE4
:101EB000E80100900B48CDE9010469465846FEF759
:101EC000D7FB00210846FEF7C1FBFEF7C9FB05B0B2
:101ED000BDE8F08F001002400010014000080140F2
:101EE000000C01400000111010B58AB000240794C6
:101EF0001C2168460894FEF7B9F916481449C0E950
:101F000000144FF6FF71C0E9024104618461FFF7DC
:101F100091FD08B1FEF72AFA079407A90D48089425
:101F2000FFF7C6FC08B1FEF721FA6020CDE90004F6
:101F300002940022694607480494FFF715FD08B192
:101F4000FEF714FA0348FFF7E9FC0AB010BD0000E1
:101F5000000400407819002010B500220B490C48FD
:101F600000F094FD08B1FEF701FA0A49084800F0B4
:101F700061FF08B1FEF7FAF9054800F0B1FF00284B
:101F800003D0BDE81040FEF7F1B910BD4C010020B0
:101F9000041A0020B0010020FEE7FEE72DE9F84F0B
:101FA000044640F68F7B48F60F794FF480684FF077
:101FB000000AC0E1B0F8441011F00F0539D030F834
:101FC000256031047ED530F8251001EA0B0141F07F
:101FD000800120F8251005EB850004EBC00797F879
:101FE000740107F5B47700286DD0F87802286BD01B
:101FF0003978226832F8210048F68F73184048F289
:10200000C003184322F821003978206830F82120D5
:10201000B0F8503052047DD5022202EBC1015A18AB
:1020200008EB4201415A8905890D009173D03A8924
:10203000DFE0C9062DD4018801EA090141F400411D
:102040000180206804F12805B0F850302978022278
:1020500002EBC1015A1808EB4201405AC0F30900D3
:102060006064E16B0844E06300212046FEF7B7FCA2
:1020700094F8240000289CD0A869002899D194F8ED
:102080002400216840F08000A1F84C0084F824A0CE
:1020900051E1018804F5B4750A0521D5B0F8502046
:1020A0002B78062101EBC3010A4408EB4201405A98
:1020B00004F52C71C0F30903EB61EA88206801F094
:1020C00037FD02E0B0E070E080E02068018801EABE
:1020D0000B0141F0800101802046FFF7E0F82AE182
:1020E0000904D5D5018801EA0B0141F08001018086
:1020F0002068B0F850202B78062101EBC3010A4478
:1021000008EB4201405A83059B0DEB6110D06969D1
:1021100071B101E061E05FE0EA88206801F008FD4C
:10212000E96968690844686100212046FEF760FC9F
:10213000216808880205ABD4C0F301300328A7D07A
:10214000B1F850000844B0F80C14C1F30901A0F82C
:102150000C142A6900F20C403E2A09D95109D20612
:1021600000D1491E02884FF4004343EA812109E06F
:10217000B2B15108D20700D0491C02884FF6FF7354
:1021800003EA81210A430280216808884BF68F7296
:10219000104080F4405048F2800210430880CAE0AA
:1021A000018841F400410180EEE72068B0F850203A
:1021B0003B78062101EBC3010A4408EB4201415A76
:1021C0008905890D009118D0FA8812E03246394607
:1021D0002046FEF76BFC00900FE0062202EBC101E7
:1021E0005A1808EB4201415A8905890D009104D023
:1021F0007A897969009B01F09BFCF8690099084491
:10220000F8617969009808447861B86918B139694A
:102210000098814204D939782046FEF7E9FB03E0B3
:102220003946206801F000FA30062FD505EB85000D
:1022300004EBC001206830F8252002EA090242F4CC
:10224000004220F8252091F82B00283101281ED0CB
:10225000F0056CD42068B0F850300D78022202EB03
:10226000C5021A4408EB4202805A8A69C0F3090089
:10227000824255D9121A8A6154D04A6902444A618D
:10228000CA691044C861206801F0CEF953E0C1F872
:1022900018A0087B524608B3700620D5487810B1C4
:1022A000012812D03AE02068B0F8502010440A7893
:1022B00000EB0210B0F80424C2F30902A0F80424D1
:1022C000B0F8042442F4004206E02068B0F8503030
:1022D00018440B7800EB0310A0F804241EE04B78A0
:1022E000206813B1012B11D018E0B0F85020104431
:1022F0000A7800EB0210B0F80C24C2F30902A0F82F
:102300000C24B0F80C2442F4004205E0B0F8503040
:1023100018440B7800EB0310A0F80C24097802E0B5
:10232000C1F818A0E9B22046FEF759FB03E0324697
:102330002046FEF72EFC2068B0F8441009043FF553
:1023400039AE0020BDE8F88F70477047FEF790BAAD
:1023500030B593B028216846FDF788FF14210AA8FC
:10236000FDF784FF002401200F94109411940104C0
:1023700012948DE8130004904FF4E010CDE908109A
:10238000022507956846FFF7EFF808B172B6FEE739
:102390000F20CDE90A054FF48060CDE90C40022101
:1023A0000AA80E94FFF724F808B172B6FEE71020D1
:1023B0000F9012940FA8FEF7A5FF002801D072B667
:1023C000FEE713B030BD7047F0B50268164B174CEE
:1023D000174D4FF08047984205D0B84203D0A04235
:1023E00001D0A84203D122F070064A6832439842D5
:1023F00005D0B84203D0A04201D0A84203D122F4B4
:102400004074CA6822434C6922F080022243026071
:102410008A68C2620A688262984201D109690163CE
:1024200001214161F0BD0000002C0140000400408A
:102430000008004010B501F01F030121046A994013
:102440008C430462016A9A401143016210BD10B5C9
:10245000446A0121626A824205D121778069F8B914
:1024600084F83E101CE0A26A824206D10222227742
:102470008069A8B984F83F1012E0E26A824206D16E
:1024800004222277806958B984F8401008E0226B52
:10249000824205D108222277806908B984F8411068
:1024A0002046FFF727FB0020207710BD10B5446AB7
:1024B000616A814201D101200DE0A16A814201D10E
:1024C000022008E0E16A814201D1042003E0216B8F
:1024D000814201D1082020772046FFF711FB002020
:1024E000207710BD10B5446A0121626A824203D18F
:1024F000217784F83E1019E0A26A824204D10220BA
:10250000207784F83F1011E0E26A824204D104206F
:10251000207784F8401009E0226B824204D1082021
:10252000207784F8411001E084F83D102046FFF741
:10253000F3F90020207710BD30B5036A026A22F05B
:10254000010202624268846924F073050C682C431E
:1025500023F002058B682B430A4DA8420BD123F0D0
:102560000805CB6822F440722B434D6923F0040325
:1025700015438A692A434260846149684163036262
:1025800030BD0000002C014030B5026A036A23F020
:1025900010030362436884690D6824F4E64444EA46
:1025A00005248D6822F0200242EA05120B4DA84254
:1025B0000ED1CD6822F0800242EA05124D6923F463
:1025C000406343EA85038D6922F0400243EA8503B4
:1025D0004360846149688163026230BD002C014020
:1025E00030B5036A026A22F4807202624268C469EA
:1025F00023F4007324F073050C682C438D6843EAC0
:1026000005230C4DA8420ED1CD6823F4006343EAA4
:1026100005234D6922F4405242EA05128D6923F4E4
:10262000806342EA05124260C4614968C163036283
:1026300030BD0000002C014030B5046A026A22F46B
:10264000805202624268C3690D6823F4E64343EA9C
:1026500005238D6824F4005444EA0534064DA8424D
:1026600004D14D6922F4804242EA85124260C3617E
:1026700049680164046230BD002C014010B5D0F8F7
:10268000B42252689047002010BD134610B50A4688
:10269000002100F017FB002010BD134610B50A46BC
:1026A000002100F0AAFB002010BD10B504468021D7
:1026B00000F088FB2046BDE81040002100F082BBFE
:1026C00010B505210023C0F894121A46194600F0EF
:1026D000F9FA002010BD10B50223C261C0F894328F
:1026E000026213460A46002100F087FB002010BD5D
:1026F00010B504210023C0F894121A46194600F0C0
:102700007CFB002010BD000010B50A46024903A062
:1027100000F0D2F8004810BDC81C002048494420F1
:10272000436F6E666967000012200880004870479A
:102730006C01002010B50A46024903A000F0BCF865
:10274000004810BDC81C002048494420496E7465EB
:1027500072666163650000000420088000487047CD
:102760006801002010B50A46024903A000F0A4F851
:10277000004810BDC81C00204C43430010B50A4659
:10278000024903A000F098F8004810BDC81C0020C2
:10279000616D6F766961730010B51A2008800A4870
:1027A0000168001D0468001D0068081809D008228F
:1027B0000649FFF7D5FA0549042210312046FFF7F4
:1027C000CFFA0248801E10BDE8F7FF1F82010020EB
:1027D000F8B504460020ADF8000048880D46010A0F
:1027E000082948D2DFE801F04704091747473C456C
:1027F000D4F8B012207C0A6819E0207C0226002858
:10280000D4F8B40205D0C16A6846884701464670CC
:102810003EE0816AF8E7C0B206282CD2DFE800F07B
:10282000030A1014181CD4F8B002426805E0694687
:1028300090471CE0D4F8B0028268E2B1207CF6E751
:10284000D4F8B002C268F8E7D4F8B0020269F4E73D
:10285000D4F8B0024269F0E7D4F8B0028269ECE73C
:10286000207C40B9D4F8B402416B684688470146E1
:102870000EE0207C20B129462046FFF716FFF8BD68
:10288000D4F8B402016B68468847014607204870B7
:10289000BDF8000048B1EA8852B1824200D9024630
:1028A000ADF800202046FFF716FFE8880028E6D1A3
:1028B0002046FFF71DFFF8BD70B5002300281ED08D
:1028C0000446002502E06D1CEDB2641C2678002E43
:1028D000F9D1022404EB450414801278CA545B1C1D
:1028E0000322CA5400245B1C06E0CA545B1CDAB203
:1028F0008C54521CD3B2401C0278002AF5D170BD12
:1029000001004FF0000004D0012901D0022901D0BC
:102910000220704701207047D0F8B80200210173EF
:102920000846704770B50446812100F0CDF80025B7
:10293000E562D4F8B80218B100F02FFCC4F8B85220
:10294000002070BD0A21018000487047600200200D
:102950002221018000487047E801002022210180E7
:10296000004870470C020020222101800048704777
:102970003002002010B5044604230322812100F018
:1029800095F90120E062102000F008FCC4F8B802BC
:1029900018B100210173084610BD022010BD10B50A
:1029A000134690F89C42D0F8B822032C07D1147B30
:1029B0002CB9012414730A46812100F01EFA00206C
:1029C00010BD000038B503460022D0F8B802ADF8BB
:1029D000002014460A7812F0600216D0202A4AD14C
:1029E0004A78022A0ED0032A06D00A2A06D00B2AD9
:1029F00041D18978016042E001222BE04988090A2F
:102A000041603CE00122011D25E04A7832B1062AEE
:102A10000BD00A2A23D00B2A2DD128E093F89C0250
:102A2000032828D10222694615E048882222B2EB09
:102A3000102F05D1CA884A2A00D94A22124809E033
:102A40002122B2EB102F16D10F48CA881838092A54
:102A500000D9092201461846FFF73DFE0FE093F822
:102A60009C22032A07D1012200F10801F3E793F821
:102A70009C22032A05D01846FFF717FE02242046A1
:102A800038BD89788160FAE76C02002010B580B10A
:102A9000D0F8B43213B10023C0F8B43209B1C0F891
:102AA000B012012180F89C12027000F0BBF80020E7
:102AB00010BD022010BD10B5D0F8C002FDF7C8FF50
:102AC000BDE81040FFF71CBF10B5D0F8C002FDF7FD
:102AD00099FFBDE81040FFF713BF2DE9F0411746FD
:102AE000044651B1D4F8B40242691AB194F89C0278
:102AF000032851D00220BDE8F081D4F8943200259B
:102B000004F11400022B03D0042B3AD0C3B33CE0F1
:102B1000D0E903639E4207D9F11AC1608AB23946EF
:102B20002046FFF7BAFD12E08068B0FBF3F103FB2B
:102B3000110199B9984211D3D4F8981288420DD254
:102B4000002211462046FFF7A8FDC4F89852002342
:102B50001A461946204600F0B5F816E0D4F8B4023B
:102B6000C16829B194F89C02032801D12046884706
:102B70008021204600F026F92046FFF7A1FD04E061
:102B8000FFE78021204600F01DF994F8A0020128FB
:102B900004D184F8A05201E0204690470020AAE723
:102BA00070B51546044649B1D4F8B40282691AB129
:102BB00094F89C02032830D0022070BDD4F89412FF
:102BC00004F5AA70032902D005291ED027E0D0E918
:102BD00003218A420BD9531AC3600846834200D3AB
:102BE00003469AB229462046FFF74FFD17E0D4F876
:102BF000B402016929B194F89C02032801D120464E
:102C000088472046FFF774FD09E000200146C4F81C
:102C10009402204600F0D6F801E0204690470020BC
:102C200070BD000010B517490446C1F8EC02C0F8A9
:102C3000C012154808600820486002208860002003
:102C40008861C86108620846FEF76EFA08B1FDF7B0
:102C50008DFB0022D4F8C0021823114604F530740D
:102C6000FDF79EFE5823002280212068FDF798FE84
:102C70004FF48073002281212068FDF791FE00202F
:102C800010BD0000DC1E0020005C00400A0601F0C0
:102C90007F01D0F8C00201EB810100EBC10002D539
:102CA00090F82A00704790F86A01704710B51C46EA
:102CB0001346D0F8C0022246FEF707F9BDE81040DF
:102CC000FFF71EBE10B5D0F8C002FEF72BF9BDE825
:102CD0001040FFF715BE70B5002204464023114690
:102CE000FFF7E4FF40260125C4F864613346002263
:102CF00080212046C4F85851FFF7D8FF6662A561CD
:102D000084F89C520020C4F894026060C4F8A402C5
:102D1000D4F8B80228B1D4F8B402002142682046A1
:102D20009047002070BD90F89C12042903D190F8C0
:102D30009D1280F89C120020704710B590F89C12EC
:102D4000032904D1D0F8B412C96901B18847002021
:102D500010BD01740020704710B5D0F8C002FEF716
:102D60008AFABDE81040FFF7CBBD70B5044600F508
:102D70002A70054600F04AF80120C4F89402B4F81D
:102D8000AE02C4F8980294F8A80210F01F010AD00D
:102D900001290DD0022910D000F08001204600F05A
:102DA00011F8002070BD2946204600F09EF8F8E793
:102DB0002946204600F0CAF9F3E72946204600F0EC
:102DC0001DF9EEE710B5D0F8C002FEF7C2F8BDE875
:102DD0001040FFF795BD10B5D0F8C002FEF766FAB7
:102DE000BDE81040FFF78CBD90F89C1280F89D1252
:102DF000042180F89C120020704710B5D0F8C00262
:102E0000FEF7E0F8BDE81040FFF77ABD0A780270DF
:102E10004A7842708A78CB7802EB032242800A79A2
:102E20004B7902EB032282808A79C97902EB012176
:102E3000C18070470246002011B1C2F8B412704739
:102E40000220704710B5D0F8B42202241AB11268DB
:102E5000904700B90024204610BD000070B50E4612
:102E60001E4D897804462970012931D894F89C02B6
:102E700002280BD003280FD031462046FFF715FC5F
:102E800029782046BDE87040FFF7F8BBD9B1032090
:102E9000616084F89C0209E071B16068884212D0D8
:102EA000C1B22046FFF7EAFB297861602046FFF7B0
:102EB000C9FF02280CD006E0022084F89C022046BC
:102EC0006160FFF7DBFB2046BDE87040FFF710BCF8
:102ED00031462046BDE87040FFF7E7BBAC0100205B
:102EE00010B5FFF778FF002010BD2DE9F0410A78FA
:102EF000002612F0600208D0202A01D0402A70D1AA
:102F0000D0F8B422926890476DE04B7800220125FA
:102F10000A2B66D2DFE803F0405D6557650805655A
:102F20002C29FFF755FC5EE004468888D8B9C8888C
:102F3000C8B94888802816D200F07F0794F89C0210
:102F4000032810D084F89E7239462046FFF704FF0C
:102F50002046FFF7CDFB1FB1022084F89C0242E01F
:102F600084F89C523FE020463BE0FFF777FF3AE0D1
:102F7000CB88012B35D190F89C32012B04D0022B49
:102F800002D0032B2DD104E08260012200F1080160
:102F900016E00122011D13E090F89C22012A03D0C3
:102FA000022A01D0032A1CD1CA88022A19D1C5607D
:102FB000D0F8A41209B10321C160022200F10C0172
:102FC000FFF789FB0FE0498801290CD1C0F8A45212
:102FD00011E090F89C32012B08D0022B06D0032B75
:102FE00004D0FFF762FB3046BDE8F0814988012933
:102FF000F9D1C0F8A422FFF77BFBF4E72DE9F041FB
:103000000A46044610780027097910F060030AD0B8
:10301000202B01D0402B50D1D4F8B4021146836844
:10302000204698478FE0C0F34110012806D0507821
:10303000D0B301282AD003283FD107E0D4F8B40246
:10304000114683682046BDE8F041184794F89C0279
:10305000022802D0032872D10AE071B380296ED011
:103060002046FFF7AFFE80212046FFF7ABFE6AE067
:10307000508838B931B1802904D0D08810B92046A1
:10308000FFF7A0FE2046FFF733FB5CE094F89C02BC
:103090000228E2D0032852D1508898BB4806F1D0CC
:1030A0002046FFF708FDEDE7FFE794F89C020026B5
:1030B000022803D0032842D112E040E009B1802960
:1030C0003DD1080601F07F0000EB800004EB800199
:1030D00001D5143101E001F5AA7102220E602AE047
:1030E000080601F00F0000EB800004EB80000AD519
:1030F000806920B301F07F0000EB800004EB8005C5
:1031000014350BE01FE0D0F85801C0B101F07F008A
:1031100000EB800004EB800505F5AA7541B180291C
:1031200006D02046FFF7B2FD10B10120286000E074
:103130002E60022229462046FFF7CDFA03E0114611
:103140002046FFF7B2FA3846BDE8F08170B5054673
:1031500008780C4610F0600003D0202801D04028E9
:1031600016D195F89C02012803D0022801D003282B
:103170000ED1207901280BD8D5F8B40282682846F0
:103180009047E188014306D12846FFF7B1FA02E0F3
:103190002846FFF78AFA002070BD70470048704744
:1031A000C81E00202DE9F0470C78002630F82430A6
:1031B00048F68F121340CA78002A78D0012A7CD0B2
:1031C000022A02D0032A75D0012648F28002134356
:1031D00020F824300D7830F8253048F68F742340DD
:1031E0002B43134320F825300D7B48F2C00948F6E5
:1031F000BF734CF2800A4BF68F77EDB3CD7891F820
:1032000000C0022D30F82C507DD048F68F6805EABA
:103210000805154320F82C50B0F8505091F800C024
:10322000054405EB0C15B1F808C02CF0010CA5F80D
:1032300000C4B0F8505091F800C0054405EB0C15DF
:10324000B1F80AC02CF0010CA5F808C44D78002D87
:103250007ED00D7830F825C05FEA4C4C07D530F8A9
:1032600025C00CEA040C4CEA0A0C20F825C091F8A1
:1032700000C030F82C5000E022E06D0606D530F892
:103280002C50254045EA090520F82C50CC780D78C3
:10329000012C30F8254004EA03047CD084F020039C
:1032A000134320F82530C1E001E006E002E043F4DA
:1032B00000738AE743F4C06387E743F4806384E7DD
:1032C0004D784DB3B0F850500F78054405EB071515
:1032D000CF8827F00107A5F800740F7830F8275041
:1032E0006D0606D530F82750254045EA090520F837
:1032F0002750CC78012C07D00C7830F824101940D6
:1033000081F0200104E064E00C7830F824101940CA
:10331000114320F8241090E0B0F850300D780344A9
:1033200003EB0513CD8825F00105A3F80854B0F888
:1033300050300D78034403EB0513B3F80C54C5F378
:103340000905A3F80C540D6903F20C433E2D00E06F
:1033500045E00BD94FEA551CED0601D1ACF1010C4B
:103360001D884FF4004848EA8C2C0BE035B34FEA37
:10337000550CED0701D00CF1010C1D884FF6FF78BC
:1033800008EA8C2C45EA0C051D800D7830F82530B4
:103390005B0408D500E046E030F82530234043EADE
:1033A0000A0320F82530097861B130F821303B401C
:1033B00083F40053134320F821303EE01D8845F488
:1033C0000045E1E70188394081F440511143018013
:1033D00033E0254048F2801845EA08051AE791F8DD
:1033E00000C030F82C506D0406D530F82C50254024
:1033F00045EA0A0520F82C5091F800C030F82C500E
:103400006D0606D530F82C50254045EA090520F810
:103410002C500D7830F825403C4084F4405414433F
:1034200020F8254070E7144320F825400B7830F849
:1034300023103940114320F823103046BDE8F087AF
:10344000002070472DE9F04391F80C804F780A78FE
:1034500048F6BF7C4BF68F7948F2800348F2C005EE
:103460004CF2800648F68F74B8F1000F28D0002F78
:1034700030F822704FEA474748D0002F05DA30F87D
:1034800022702740374320F822700A7830F82270E3
:103490007F0605D530F8227027402F4320F8227090
:1034A0000D7830F825202240324320F825200C7872
:1034B00030F8242002EA0C021A4320F824201AE0F3
:1034C0007FB130F82260760605D530F822602640BC
:1034D0002E4320F822600A7830F8221001EA0C010D
:1034E0000EE030F822506D0405D530F8225025400A
:1034F000354320F822500A7830F8221001EA0901F9
:10350000194320F822100020BDE8F083002F05DACF
:1035100030F822702740374320F822700A7830F8BC
:103520002260760605D530F8226026402E4320F82A
:1035300022600E7830F8262022402A4320F82620E8
:103540000C7830F8242002EA09021A4320F82420DB
:10355000C1E70020704700207047012120F8401F7C
:1035600000210180818001820846704730F8401FA9
:1035700021F43F410180002070470020704730B5A2
:103580000A7BB2BB4A7848F68F7548F28004C2B114
:103590000B7830F82320520607D530F823202A4034
:1035A00048F2C0052A4320F82320CA78012A20D0F7
:1035B0000A7830F8221048F6BF73194081F02001D4
:1035C00014E00A7830F822305B0407D530F8223056
:1035D0002B404CF280052B4320F822300A7830F83B
:1035E00022104BF68F73194081F44051214320F88B
:1035F0002210002030BD10B54A780978002A48F220
:10360000800330F8212005D048F6BF74224082F0B4
:10361000100204E04BF68F74224082F480521A4369
:1036200020F82120002010BD2DE9F0470D464B78F1
:10363000097B04464FF0000948F68F7248F2800A71
:103640004FF400474FF6FF78012B09D000296FD0C7
:10365000E87802286DD001286CD00120BDE8F08701
:10366000AE692869864200D9064691B1E9780229F7
:103670001ED0286A801B2862287834F8201049065A
:10368000B4F85010214401EB001073D5A0F80C647D
:1036900016E1B3B2EA882046696900F067FAB4F827
:1036A00050002978204400EB0110A0F804640DE1DB
:1036B000296A814277D9297834F82100104048F2EC
:1036C0008012104324F82100286A801B2862287881
:1036D00034F820104906697871D511B101292AD032
:1036E00030E0B4F85010214401EB0010B0F80C1495
:1036F000C1F30901A0F80C1400F20C403E2E07D9CA
:103700007109F20600D1491E028847EA812107E0CB
:103710004EB17108F20700D0491C028808EA8121E5
:103720000A4302800EE0018841F40041018009E073
:10373000F1E020E195E1B4F85020111901EB0010FF
:10374000A0F80C646A89B3B22046696900F00EFAE9
:103750006869304468612969286A884202D9801BF7
:10376000286202E00646C5F82090687818B1012862
:103770002BD032E02FE0B4F850002978204400EB41
:103780000110B0F80414C1F30901A0F8041400F208
:1037900004403E2E08D97109F20600D1491E028864
:1037A00047EA812108E0A1E056B17108F20700D094
:1037B000491C028808EA81210A4302800DE00EE0DC
:1037C000018841F40041018007E0B4F850002978F5
:1037D000204400EB0110A0F804642A8971E011B1C3
:1037E000012927D02DE0B4F85010214401EB00103E
:1037F000B0F80414C1F30901A0F8041400F2044065
:103800003E2E07D97109F20600D1491E028847EA07
:10381000812107E04EB17108F20700D0491C0288EF
:1038200008EA81210A4302800BE0018841F400414B
:10383000018006E0B4F85010214401EB0010A0F81C
:1038400004642A89B3B22046696900F08FF9686977
:10385000304468612969286A884202D9801B28623D
:1038600002E00646C5F82090687810B1012836D0ED
:1038700026E0B4F850002978204400EB0110B0F89D
:103880000C14C1F30901A0F80C1400F20C403E2EF8
:1038900007D97109F20600D1491E028847EA812141
:1038A00007E04EB17108F20700D0491C028808EA0F
:1038B00081210A43028003E0018841F40041018034
:1038C0006A89B3B22046696900F050F9297834F862
:1038D000210048F6BF72104080F030000FE1B4F8CC
:1038E00050100819297800EB0110CFE62A7834F837
:1038F000220048F68F63184040EA0A0024F82200AC
:10390000B4F850002A78204400EB02108BB2A0F8E3
:1039100004342A89D6E7A9692869814202D9091A9B
:10392000A96102E00846C5F81890B4F850102A784A
:10393000214401EB0211B1F80C24C2F30902A1F8F1
:103940000C2401F20C413E287DD94209C00600D169
:10395000521E088847EA82220AE0088840F40040A4
:1039600007E04208C00700D0521C088808EA8222FB
:1039700010430880BBE033BBB4F8500029782044E2
:1039800000EB0110B0F80414C1F30901A0F804140D
:10399000296900F204403E2907D94B09C90600D124
:1039A0005B1E018847EA832307E041B14B08C90742
:1039B00000D05B1C018808EA8323194302E00188D8
:1039C00041F400410180687810B1012828D030E02E
:1039D000B4F850002978204400EB0110B0F80C1422
:1039E000C1F30901A0F80C14296900F20C403E292A
:1039F00007D94B09C90600D15B1E018847EA83231A
:103A000007E041B14B08C90700D05B1C018808EAF8
:103A10008323194302E0018841F40041018008E05A
:103A2000B4F850100819297800EB0110298AA0F881
:103A30000C14E869C0B3297834F82100430401D597
:103A4000430605D400E046E044F2400318424ED15C
:103A500034F82100104048F2C002104324F821003D
:103A600045E0A9692869814202D9091AA96102E0E1
:103A70000846C5F8189013BBB4F850102A782144B2
:103A800001EB0211B1F80424C2F30902A1F80424E5
:103A900001F204413E2808D94209C30600D1521E52
:103AA0000B8847EA822208E021E078B14208C30788
:103AB00000D0521C0B8808EA822213430B806978DD
:103AC00000293FF42EAF012909D010E00A8842F402
:103AD00000420A80F3E700287FF443AF3DE7B4F8E3
:103AE000502011192A7801EB0211A1F80C04297851
:103AF00034F821004BF68F72104080F4405040EAB9
:103B00000A0024F821000020A8E50021A0F84410B4
:103B10004FF43F41A0F84010002070470148FDF7E6
:103B200069BA0000DC1E0020B0F8440070470000B5
:103B300010B500EB42005C0800F5806009D000BFC2
:103B400030F8042B01F8012B120A01F8012B641E36
:103B5000F6D1DA0701D00088087010BD0020704748
:103B600011B98021A0F84C100020704710B55B1CE3
:103B700000EB42005B0800F5806009D011F8012BD2
:103B800011F8014B42EA042220F8042B5B1EF5D108
:103B900010BDFEE70907090E002804DB00F1E02054
:103BA00080F80014704700F00F0000F1E02080F86A
:103BB000141D704730B52D482D4A03780620B3FBFD
:103BC000F0F0002104E000BF22F81130491CC9B216
:103BD0009942F9D30021441C1BE000BF02EB4103D2
:103BE00001EB400533F8023C9B1D22F8113002EB3B
:103BF000450333F8023C9B1D22F8153001EB80038E
:103C000002EB430535F8025CAD1D491C22F8135048
:103C1000C9B2A142E2D30021012303EB400411E029
:103C200002EB410333F8023C9B1D22F8113001EBFB
:103C3000400302EB430535F8025CAD1D491C22F838
:103C40001350C9B28C42EBD800210AE001EB80038B
:103C500002EB430434F8024CA41D491C22F8134023
:103C6000C9B2B1EB400FF1D330BD000046010020D6
:103C7000CC16002030B54D4803780620B3FBF0F198
:103C800000224B48144603E020F81240521CD2B2E6
:103C90009A42F9D300224B1C3AE000BF00EB4204E9
:103CA00002EB410534F8024CA41D20F8124000EB51
:103CB000450434F8024CA41D20F8154002EB8105A0
:103CC00000EB450434F8024CA41D20F8154001EB2C
:103CD000410402EB440500EB450434F8024CA41DFA
:103CE00020F8154002EBC10400EB440535F8025CF6
:103CF000AD1D20F8145001EB810402EB440500EBEC
:103D0000450434F8024CA41D521C20F81540D2B2D0
:103D10009A42C3D30022012303EB41032FE000BFEB
:103D200000EB420434F8024CA41D20F8124002EBD0
:103D3000410400EB440535F8025CAD1D20F8145039
:103D400002EB810400EB440535F8025CAD1D20F860
:103D5000145001EB410402EB440400EB440535F838
:103D6000025CAD1D20F8145002EBC10400EB4405C9
:103D700035F8025CAD1D521C20F81450D2B29342AB
:103D8000CED8002201EB81050BE000BF02EB45031A
:103D900000EB430434F8024CA41D521C20F81340DD
:103DA000D2B2B2EB410FF1D330BD0000460100208A
:103DB000B01700202DE9F0412E4D044600F001021D
:103DC0004FF400512846FCF748FD4FF48046C4F3F9
:103DD000400231462846FCF740FDC4F380027100E2
:103DE0002846FCF73AFD244DC4F3C00201212846C1
:103DF000FCF733FD3146214EC4F300123046FCF788
:103E00002CFDC4F34012A9152846FCF726FD6F15BA
:103E1000C4F3801239462846FCF71FFDC4F3C012D4
:103E200029152846FCF719FDC4F30022394630460F
:103E3000FCF713FDC4F3402240213046FCF70DFD92
:103E4000C4F3802220213046FCF707FDC4F3C022D2
:103E500010213046FCF701FDC4F300322021284632
:103E6000FCF7FBFCC4F340322846BDE8F0410821D2
:103E7000FCF7F3BC0010014000080140000C0140B9
:103E80002DE9FF5F4FF0000ACDF800A0CDF804A0A7
:103E9000CDF808A056460225544657464FF0010972
:103EA000E846CDF80CA000BF09FA07F080B2FFF792
:103EB00081FF00F051FA08F807007F1CFFB242466C
:103EC0000E2FF1D3DFF84881002106EB0613575C73
:103ED00003EB4613002008EB430300BF27FA00FC66
:103EE0005FEACC7C11D0C0EBC00C03EB4C0C1CF88F
:103EF00001C0BCF1E80F08D3C0EBC00003EB4000E9
:103F0000E83E405C3044C6B203E0401CC0B2072823
:103F1000E4D3491CC9B20E29D7D306EB0610DFF84B
:103F2000F4B000EB46110027914608EB410619F862
:103F30000720002022FA00F3C846DB0706D0C0EBBA
:103F4000C00306EB4303DB5DFF2B1DD0401CC0B25A
:103F50000728EFD37F1CFFB20E2FE8D32E4A002193
:103F6000574618F80130002023FA00FC5FEACC7CA9
:103F700015D0C0EBC00C06EB4C0C1CF801C002F8CD
:103F800005C06D1CEDB20BE04FF4FA70FCF74CFB72
:103F90009BF80010C1F101018BF80010DAE75755CA
:103FA000401CC0B20728DFD3491CC9B20E29D8D3A0
:103FB0000220115CE03908291CD2DFE801F0040777
:103FC0000A0D1013161944F0010413E044F0020422
:103FD00010E044F004040DE044F008040AE044F06A
:103FE000100407E044F0200404E044F0400401E041
:103FF00044F08004401CC0B20828DAD314700822B0
:1040000005490648FEF7CBFC0028F8D1BDE8FF9F24
:10401000080000204801002000000020041A0020B1
:10402000FCF72EFCFEF794F9FDF7CCFEFDF7B4FE8D
:10403000FDF75AFFFDF790FF00F086FA00F078FADE
:10404000FCE700002DE9F043714F00256F4A3978F5
:1040500003242E46062300205AE025B1012D19D055
:10406000022D53D138E0B1FBF3FC844507D8B0EB07
:10407000510F04D200EB400C22F81C1046E04FEA2E
:10408000410CBCFBF4FC844540D800EB400C22F80A
:104090001C603BE0B1FBF3FC844505D801EB810CCF
:1040A000BCFBF3FC844506D200EB400C02EB4C0C4D
:1040B000ACF802102AE0B1FBF4FC844526D24FEAAA
:1040C000410CBCFBF4FC844520D300EB400C02EB1C
:1040D0004C0CACF8026019E0B0EB510F0CD901EBBD
:1040E000810CBCFBF3FC844506D200EB400C02EBD8
:1040F0004C0CACF8041009E0B1FBF4FC844505D984
:1041000000EB400C02EB4C0CACF80460401C80B29D
:104110008842A2D36D1CADB2032D9CD339783D4F9C
:104120000025002069E025B1012D1FD0022D62D1AC
:1041300042E0B1FBF3F6864207D8B0EB510F5AD9F3
:104140004E00B6FBF4F6864255D900EB400602EB72
:10415000460637F81080B6F802C0A8EB0C0CB6F88B
:104160000480ACEB080CA6F800C044E0B1FBF3F609
:10417000864203D2B1FBF4F686420AD84E00B6FB63
:10418000F4F6864237D201EB8106B6FBF3F686429F
:1041900031D900EB400602EB4606B14606F1020CAF
:1041A000368837F81080BCF802C0A8EB0606A6EBEC
:1041B0000C0CA9F802C01EE0B1FBF4F6864202D254
:1041C000B0EB510F05D301EB8106B6FBF3F6864247
:1041D00011D200EB400602EB4606B14606F1040C94
:1041E000768837F810803CF804CCA8EB0606A6EBDE
:1041F0000C0CA9F804C0401C80B2884293D36D1CFB
:10420000ADB2032D8DD3BDE8F0830000C80E0020B1
:1042100046010020CC160020F0B54D484D4A002440
:10422000007803254100062302F23C662746002061
:1042300084E024B1012C2BD0022C7DD14FE0B1FBC6
:10424000F3FC844503D2B1FBF5FC844508D8B0EB00
:10425000510F0AD94FEA410CBCFBF5FC844504D947
:1042600036F810C04FEA5C0C08E0B1FBF5FC844561
:1042700009D2B0EB510F06D236F810C000EB400E59
:1042800022F81EC058E000EB400C22F81C7053E0EE
:10429000B1FBF3FC844503D2B1FBF5FC844505D8A2
:1042A00001EB810CBCFBF3FC844504D236F810C052
:1042B0004FEA5C0C05E0B1FBF3FC844508D936F805
:1042C00010C000EB400E02EB4E0EAEF802C033E021
:1042D00000EB400C02EB4C0CACF802702CE0B0EBA5
:1042E000510F05D94FEA410CBCFBF5FC844505D8BC
:1042F00001EB810CBCFBF3FE864504D236F810C0FE
:104300004FEA5C0C0BE04FEA410EBEFBF5FE864522
:104310000CD2BCFBF3FC844508D936F810C000EB86
:10432000400E02EB4E0EAEF804C005E000EB400C70
:1043300002EB4C0CACF80470401C80B28842FFF4D5
:1043400078AF641CA4B2032CFFF471AFF0BD000081
:10435000460100207411002070B5114D4FF400414A
:104360002846FCF775FA044669142846FCF770FAEB
:1043700044EA4004A9142846FCF76AFA094D44EAC5
:10438000800410212846FCF763FA44EAC0040221A5
:104390002846FCF75DFA44EA0010C0B270BD000088
:1043A000000C0140000801402DE9F0474FF0010AE0
:1043B0000024DFF874902FE099F80200002830D034
:1043C000DFF8688004EB4407002508EB470618F87F
:1043D00017103279B0782B4600F0C2F86D1CEDB2A0
:1043E0003D2DF4D34FF4C163114A00211148FDF76C
:1043F00089FB4D4605E000BFFFF742FDA878002885
:104400000FD068788100A0F101006870F4D1BAF192
:10441000000F06D0641CA4B299F80010B4EB410F51
:10442000CAD3BDE8F08700004601002074110020C7
:10443000B8020020781900202DE9FC5F0020064614
:10444000DFF8C89001905BE00025DFF8C4A0DFF83A
:10445000C4B0304600F083F90F46009004460AEBE2
:104460004500407800F07BF92B4A2C4B00F08AF98C
:104470002B4A2C4B00F086F922463B4600F09AF876
:1044800000F040F999F80010C3B2B3FBF1F0B3FBB0
:10449000F1FCB3FBF1F801FB103001FB1C3C01FB0C
:1044A000183100EB40020CEB4C0C01EB41010BEB23
:1044B00042021BF81CC00BEB41004C46127980787D
:1044C0002B46614600F04CF86D1CEDB23D2D01D23B
:1044D0000098C3E74FF4C163134A00211348FDF766
:1044E00011FB04E0FFF7CCFCA07801280CD0607829
:1044F000411E6170F6D20198002805D1761CF6B2F3
:1045000099F800108E429FD3BDE8FC9F4601002021
:10451000CC000020C80E00209A9999999999E93FFA
:1045200014AE47E17A14DE3FB8020020781900206B
:104530000448807818B1012803D1FFF735BFFFF791
:104540007BBF70474601002000B5FFF733FBFFF744
:1045500091FBFFF777FD5DF804EBFFF75DBE000010
:1045600070B5134C03EB430304EB03140023A03496
:1045700001FA03F52D0601D53B2500E01D2524F8A1
:10458000135000FA03F52D0601D53B2600E01D2649
:1045900004EB43052E8202FA03F6360601D53B26CC
:1045A00000E01D265B1C9BB22E84082BE0D370BD5F
:1045B000B802002010B591EA030F48BF83F0004312
:1045C00000F1E681841A71EB030C05D2121943EB5A
:1045D0000C03001B61EB0C01DFF824E14FEA1154DE
:1045E000A4EB135C1EEA430F18BF9EEA445F73D02E
:1045F00023EA0E03DCF1200E21EA045143F4801378
:1046000032D322FA0CFE10EB0E0023FA0CFE41EB23
:104610000E01CCF1200E03FA0EFE10EB0E0051F14C
:104620000001B1F5801FCCF1200E32D201EB045114
:1046300012FA0EF2BDE8104058BF7047401C38BF58
:104640005FEA420218BF7047002814BF20F0010043
:1046500041F100014FEA410313F5001F38BF7047D5
:10466000A1F1C04100F086B9012A43EB0302ACF18D
:10467000200CDCF11F0E32BF4FF0000E23FA0CF3BA
:1046800010EB030041EB0451B4EB115FD0D0A1EB70
:10469000045101F5801149085FEA300001EB045133
:1046A0000ED350F1000038BF12FA0EFE08D1BDE85B
:1046B0001040C9E7401C38BF5FEA4202CAD1C3E7D5
:1046C000BDE810404FEA410313F5001F38BF7047A3
:1046D000A1F1C04100F04EB99EEA445F08D011EA52
:1046E0005E0FBDE8104004BF01F00041002070479C
:1046F000BDE8104070B500F0EFF800BF64FBBE3EAF
:104700000000E0FF4FEA1153A3F58063D3F11E03CD
:10471000A8BFD3F1200C08DB4FF0004242EAC122CF
:1047200052EA505232FA03F0704709420BD4102B70
:10473000C4BF0020704703F5787CBCF1FF3F05D073
:104740004FF0FF3070474FF00000704770B500F039
:10475000C3F800BF4992248000207047F0E7B0FA08
:1047600080F310FA03F10AD0C3F11D0303F580634F
:104770004FEA41504FEA035202EBD12170474FF00C
:1047800000007047DFF848C170B51CEA111E1EBF5B
:104790001CEA13159EEA0C0F95EA0C0F00F06F80CF
:1047A00081EA030423EA4C134EEAD47E21EA4C1139
:1047B00041F4801143F48013AE44A1FB024CA0FBF2
:1047C0000365AEF17F7E361955EB0C05A1FB034C5A
:1047D0004CF10003A0FB021C16EB0C06654153F1E3
:1047E0000003094218BF46F0010613F4007F0BD105
:1047F0004FEA03314FEA0530340341EA155140EAEC
:1048000016506FF003020AE04FEAC3214FEAC520B9
:10481000F40241EA555140EA56506FF0020202EBB1
:104820002E4201EB025585EACE710AD05FEA440CB4
:1048300018BF24F0004450F1000041F1000120EACB
:10484000D47040F2FE7C624500D270BDA84214BF15
:104850004FF080444FF04044002E08BF0024BEF1CA
:10486000806FA8BFA1F1C041BDE8704080F2828096
:104870004FF0000001F1C04101F0004170479EEA95
:104880000C0F0CEA131518BF95EA0C0F06D04FF069
:10489000000081EA030E0EF0004170BD00F01CF82C
:1048A0008900013E00F007B800F009B84FEA430C58
:1048B0005FEA5C5C08D081EA030100F05BB84FEA74
:1048C000410C5FEA5C5CF6D14FF000000149704793
:1048D0000000FF070000F87F0EF1020E2EF0030E1D
:1048E0005EF8046B364205D4012A43EB030515F547
:1048F000001F12D8012841EB010C1CF5001F0CD839
:104900000ED14FEAD17C15F5001F0CEB4C0C0CF1CD
:10491000020C08BF4CEBD37C04E04FF0080C01E024
:104920004FEAD37C0CEB4C0526FA05F606F0070699
:10493000B6F1040C06D20EEB860CBDE870404CF0CC
:10494000010C6047DFE80CF0090B02024FF0004158
:104950004FF00000A1F5002170BD19461046012856
:1049600051EB010418BFD4F5001484BF002001F0FE
:10497000004170BD0808A0F500114FEA31017047F1
:1049800010B591EA030F48BF83F000433FF51AAE1C
:10499000841A71EB030C07D212198CF0004C43EB14
:1049A0000C03001B61EB0C01DFF8A4E14FEA11548A
:1049B000A4EB135C1EEA430F18BF9EEA445F00F0AD
:1049C000B08023EA6E03524221EA0451C3EB6E0326
:1049D00038BF5B1EDCF1200E25D322FA0CFE10EB53
:1049E0000E0043FA0CFE41EB0E01CCF1200E03FA4F
:1049F0000EFE10EB0E0051F10001CCF1200E29D477
:104A000012FA0EF201EB0451BDE8104058BF704796
:104A1000401C1CBFB2F1004F704700280CBF491C5E
:104A200020F00100704712EB020E43EB030218BFA7
:104A30004FF0010E4EEA4202ACF1200CDCF11E0EEA
:104A400054D943FA0CFE10EB0E0051F1FF31CCF1BA
:104A50001E0ED5D50EF1010E12FA0EFE404141EBAD
:104A6000010101EB445C5FEA5C5C10D910EBDE7085
:104A700001EB045138BFBEF1004FBDE8104018BF34
:104A8000704700280CBF491C20F00100704730D24D
:104A90004FEAD42C11F5001124F400641BD0B1FAB4
:104AA00081F20B3AA41AA41ED2F12003914030FAED
:104AB00003F31943904001EBCC71002C01EB04513E
:104AC000BDE81040A8BF704701F1C0414FF00000A1
:104AD00001F000417047B0FA80F310FA03F100D101
:104AE00010BDE41A173C4805C90AE4E701EB04517C
:104AF00010BD491001EB0451BDE810404FEA3000F1
:104B000002E04FF0000170474A0008BF0042F8D0B1
:104B1000B2F5001F28BF704701F000414FF00000C0
:104B200070479EEA445F07D011EA5E0FBDE810406F
:104B300004BF002100207047BDE8104070B5FFF7AA
:104B4000CBFE00BF40DFF63E83F0004110467047C9
:104B50000000E0FF010202030405060708090A0B32
:104B60000C0D0E0F101000000000000000000102EC
:104B70000304060708090000984B00080000002005
:104B8000B8020000280100083C4D0008B8020020CF
:104B9000782500008401000881102A351E1F20217D
:104BA0002223242526272D2E2A2B141A0815171CFC
:104BB000180C12132F303139041607090A0B0D0E89
:104BC0000F333428200DE11D1B061905111036374F
:104BD00038E524E0E3E2222C051FE6E7E9E4000ED5
:104BE000573A3B3C3D3E3F404142434445FF121251
:104BF00012251237124A125C126E1281129312A5FC
:104C000012B812CA12F14062F81205121C122912CF
:104C10003C124E126012731285129812AA12BC1224
:104C2000CF12E112F82507252025332545255725E4
:104C30006A257C258E25A125B325C625D825F64ACB
:104C40000B4A294A3C4A4E4A604A734A854A984A66
:104C5000AA4ABC4ACF4AF15C025C195C305C755CC4
:104C6000BA5CD15CE85CFF72641329271B08590405
:104C70001A65041A7D041A99041A09041A350417CE
:104C80000403090412013202164083042B57260242
:104C900001020301031A1A03191F1182105324F48D
:104CA0001375291B0825041AC504819A190C811A49
:104CB0005D141A51041A69041A45041409022213D6
:104CC00001011DE0320904591403010215092111E3
:104CD000011401224A160705810304220A091F2430
:104CE0000A21072429486912314B0A06F429CC10FD
:104CF0000A05010902A1010901A11008050919010C
:104D0000290315180F250195037501810295017579
:104D100005810120281730093109381581257F7553
:104D20000895038106C0093C05FF090129200E757D
:0C4D3000019502B12275069501B101C089
:04000005080000ED02
:00000001FF
